:100000000C942A000C943F000C943F000C943F0089
:100010000C943F000C943F000C943F000C943F0064
:100020000C943F000C943F000C943F000C943F0054
:100030000C943F000C943F000C943F000C943F0044
:100040000C943F000C943F000C943F000C943F0034
:100050000C943F0011241FBECFE5D8E0DEBFCDBF1A
:1000600012E0A0E6B0E0E8E1FBE102C005900D92ED
:10007000A830B107D9F70E94C40B0C948A0D0C94D8
:100080000000EF92FF920F931F937B018C0120E001
:1000900030E040E05FE40E94110388238CF0C80147
:1000A000B70120E030E040E05FE40E94B9010E9427
:1000B00041039B01AC01205030404040504806C0F5
:1000C000C801B7010E9441039B01AC01B901CA01FB
:1000D0001F910F91FF90EF900895A0E0B0E0E3E74B
:1000E000F0E00C94530DDC012B01FA019C9192304D
:1000F00008F439C1EB018881823008F433C19430AF
:1001000069F4843009F02FC111969C91119789816F
:10011000981709F428C1A0E6B0E025C1843009F49D
:1001200021C18230A9F4923009F01DC19A01AD01BC
:1001300088E0EA010990AE01E90109929E0181502F
:10014000C1F7E201898111969C918923818308C1BD
:10015000923009F407C112962D903C901397EB0151
:100160008A819B811496AD90BD90CD90DC901797BD
:10017000EC80FD800E811F819101281B390BB90194
:1001800037FF04C066277727621B730B6032710547
:100190000CF061C0121613066CF537014801062EEB
:1001A00004C096948794779467940A94D2F721E0D8
:1001B00030E040E050E004C0220F331F441F551FC1
:1001C0006A95D2F721503040404050402E213F21C7
:1001D00040235123211531054105510521F021E02E
:1001E00030E040E050E079018A01E628F72808294C
:1001F00019293CC0232BD1F1260E371E35014601AB
:10020000062E04C096948794779467940A94D2F744
:1002100021E030E040E050E004C0220F331F441FD3
:10022000551F6A95D2F721503040404050402A2156
:100230003B214C215D21211531054105510521F05E
:1002400021E030E040E050E059016A01A628B728DB
:10025000C828D9280BC0821593052CF01C01AA24AC
:10026000BB24650103C0EE24FF24870111969C91F5
:10027000D20111968C91981709F445C0992339F051
:10028000A80197012A193B094C095D0906C0A6017E
:1002900095012E193F09400B510B57FD08C01182E3
:1002A0003382228224833583468357831DC081E0B5
:1002B00081833382228288279927DC01821B930B5A
:1002C000A40BB50B84839583A683B7830DC0220F3F
:1002D000331F441F551F24833583468357838281F0
:1002E000938101979383828324813581468157814D
:1002F000DA01C9010197A109B1098F5F9F4FAF4F83
:10030000BF4328F30BC0918333822282EA0CFB1C8B
:100310000C1D1D1DE482F5820683178383E0808314
:10032000248135814681578157FF1AC0C901AA2708
:1003300097FDA095BA2F81709070A070B0705695FF
:10034000479537952795822B932BA42BB52B848328
:100350009583A683B7838281938101969383828359
:10036000DF0101C0D201CD01CDB7DEB7E2E10C94CF
:100370006F0DA0E2B0E0EFEBF1E00C945F0D69834C
:100380007A838B839C832D833E834F835887E9E058
:10039000EE2EF12CEC0EFD1ECE010196B7010E944F
:1003A00032058E010F5E1F4FCE010596B8010E94E7
:1003B00032058A8991E089278A8BC701B801AE018D
:1003C000475E5F4F0E946D000E945D04A096E6E0CC
:1003D0000C947B0DA0E2B0E0E0EFF1E00C945F0D37
:1003E00069837A838B839C832D833E834F835887D5
:1003F000F9E0EF2EF12CEC0EFD1ECE010196B701B7
:100400000E9432058E010F5E1F4FCE010596B80186
:100410000E943205C701B801AE01475E5F4F0E94DE
:100420006D000E945D04A096E6E00C947B0DA0E2B6
:10043000B0E0EDE1F2E00C94530D69837A838B8395
:100440009C832D833E834F835887CE010196BE0146
:10045000675F7F4F0E943205CE010596BE016F5E39
:100460007F4F0E9432059985923088F089898230C9
:10047000C8F0943019F4823051F404C0843029F467
:10048000923081F480E690E0C6C0923049F420E0DA
:100490009A858A89981321E02A87CE010996BBC0E4
:1004A000823049F420E09A858A89981321E02A8BCA
:1004B000CE014196B0C02D843E844F8458886D880B
:1004C0007E888F88988CEE24FF248701AA24BB2481
:1004D000650140E050E060E070E0E0E0F0E0C10184
:1004E00081709070892BE9F0E60CF71C081D191D2E
:1004F0009A01AB012A0D3B1D4C1D5D1D80E090E073
:10050000A0E0B0E0E614F7040805190520F481E046
:1005100090E0A0E0B0E0BA01A901480F591F6A1F9E
:100520007B1FAA0CBB1CCC1CDD1C97FE08C081E005
:1005300090E0A0E0B0E0A82AB92ACA2ADB2A3196C6
:10054000E032F10549F0660C771C881C991C569422
:10055000479437942794C3CFFA85EA892B893C893D
:100560008B859C85280F391F2E5F3F4F17C0CA010E
:1005700081709070892B61F016950795F794E79438
:1005800080E090E0A0E0B0E8E82AF92A0A2B1B2BD3
:1005900076956795579547952F5F3F4F77FDE7CF46
:1005A0000CC0440F551F661F771F17FD4160EE0CEE
:1005B000FF1C001F111F21503040403090E05907B0
:1005C00090E0690790E4790760F32B8F3C8FDB01A3
:1005D000CA018F779070A070B07080349105A1052A
:1005E000B10561F447FD0AC0E114F10401051105EC
:1005F00029F0405C5F4F6F4F7F4F40781A8EFE1797
:1006000011F081E08A8F4D8F5E8F6F8F78A383E02A
:10061000898FCE0149960E945D04A096E2E10C9478
:100620006F0DA8E1B0E0E7E1F3E00C945F0D6983A2
:100630007A838B839C832D833E834F83588789E005
:10064000E82EF12CEC0EFD1ECE010196B7010E94A2
:1006500032058E010F5E1F4FCE010596B8010E9434
:1006600032058985823040F08989823028F0C701BF
:10067000B8010E94AA0501C08FEF6896E6E00C94CD
:100680007B0DACE0B0E0E7E4F3E00C94630D69832C
:100690007A838B839C83CE010196BE016B5F7F4F73
:1006A0000E9432058D81823061F1823050F18430B8
:1006B00021F48E81882351F12EC02F81388537FD9A
:1006C00020C06E812F3131051CF06623F9F023C064
:1006D0008EE190E0821B930B29853A854B855C85E2
:1006E00004C056954795379527958A95D2F7662386
:1006F000B1F050954095309521953F4F4F4F5F4F4A
:100700000EC020E030E040E050E009C02FEF3FEFA6
:100710004FEF5FE704C020E030E040E050E8B9016F
:10072000CA012C96E2E00C947F0DA8E0B0E0EBE962
:10073000F3E00C945B0D7B018C0161157105810563
:10074000910519F482E0898360C083E089838EE19A
:10075000C82ED12CDC82CB82ED82FE820F831887DB
:10076000C801B7010E940E04FC013197F7FF3BC09E
:10077000222733272E1B3F0B57016801022E04C08E
:10078000D694C794B794A7940A94D2F740E050E067
:1007900060E070E081E090E0A0E0B0E004C0880F8D
:1007A000991FAA1FBB1F2A95D2F70197A109B1096A
:1007B0008E219F21A023B1230097A105B10521F02F
:1007C00041E050E060E070E04A295B296C297D2916
:1007D0004D835E836F8378878EE190E08E1B9F0B45
:1007E0009C838B8312C0309781F00E2E04C0EE0CD8
:1007F000FF1C001F111F0A94D2F7ED82FE820F83A7
:100800001887CE1ADF0ADC82CB821A82CE010196CB
:100810000E945D042896EAE00C94770DEF92FF9217
:100820000F931F937B018C0180E0E81680E0F806AF
:1008300081E0080780E0180788F48FEFE816F104DC
:100840000105110531F028F088E090E0A0E0B0E06B
:1008500017C080E090E0A0E0B0E012C080E0E816B1
:1008600080E0F80680E0080781E0180728F088E1BA
:1008700090E0A0E0B0E004C080E190E0A0E0B0E053
:1008800020E230E040E050E0281B390B4A0B5B0BC4
:1008900004C016950795F794E7948A95D2F7F70167
:1008A000E859FF4F8081281B310941095109C901CD
:1008B0001F910F91FF90EF900895DF92EF92FF92BA
:1008C0000F931F93FC01E480F58006811781D1808E
:1008D0008081823048F480E090E0A0E1B0E0E82A36
:1008E000F92A0A2B1B2BA5C0843009F49FC0823043
:1008F00021F4EE24FF24870105C0E114F104010571
:10090000110519F4E0E0F0E096C0628173819FEF79
:10091000623879070CF05BC022E83FEF261B370BEB
:100920002A3131052CF020E030E040E050E02AC0D0
:10093000B801A701022E04C0769567955795479593
:100940000A94D2F781E090E0A0E0B0E004C0880F04
:10095000991FAA1FBB1F2A95D2F70197A109B109B8
:100960008E219F21A023B1230097A105B10521F07D
:1009700081E090E0A0E0B0E09A01AB01282B392B98
:100980004A2B5B2BDA01C9018F779070A070B07091
:1009900080349105A105B10539F427FF09C0205C19
:1009A0003F4F4F4F5F4F04C0215C3F4F4F4F5F4F52
:1009B000E0E0F0E02030A0E03A07A0E04A07A0E441
:1009C0005A0710F0E1E0F0E079018A0127C06038B1
:1009D000710564F5FB01E158FF4FD801C7018F771E
:1009E0009070A070B07080349105A105B10539F404
:1009F000E7FE0DC080E490E0A0E0B0E004C08FE32B
:100A000090E0A0E0B0E0E80EF91E0A1F1B1F17FFE0
:100A100005C016950795F794E794319687E01695EB
:100A20000795F794E7948A95D1F705C0EE24FF2443
:100A30008701EFEFF0E06E2F679566276795902F9F
:100A40009F77D794DD24D7948E2F8695492F462BF8
:100A5000582F5D29B701CA011F910F91FF90EF90A8
:100A6000DF900895FC01DB01408151812281622FDA
:100A70006F7770E0221F2227221F9381892F880F12
:100A8000822B282F30E0991F9927991F11969C934C
:100A9000119721153105A9F541155105610571051C
:100AA00011F482E037C082E89FEF13969C938E93F7
:100AB00012979A01AB0167E0220F331F441F551FA5
:100AC0006A95D1F783E08C930DC0220F331F441F2A
:100AD000551F12968D919C911397019713969C9395
:100AE0008E931297203080E0380780E0480780E43A
:100AF000580758F314962D933D934D935C93179795
:100B000008952F3F310579F44115510561057105AF
:100B100019F484E08C93089564FF03C081E08C9302
:100B200012C01C9210C02F57304013963C932E9346
:100B3000129783E08C9387E0440F551F661F771F41
:100B40008A95D1F7706414964D935D936D937C9361
:100B5000179708951F93DC01FB019C91923008F4D4
:100B600047C08081823008F443C0943051F411961C
:100B70001C91843099F58181682F70E0611B7109A7
:100B80003FC0843021F0923031F48230B9F181815C
:100B9000882389F12DC011961C9111978230F1F0B4
:100BA00081811817D9F412962D913C911397828167
:100BB00093818217930794F028173907BCF0149695
:100BC0008D919D910D90BC91A02D24813581468100
:100BD0005781281739074A075B0718F4112341F09A
:100BE0000AC082179307A407B50740F4112319F030
:100BF00061E070E005C06FEF7FEF02C060E070E081
:100C0000CB011F910895DF93CF9300D000D00F92B6
:100C1000CDB7DEB71A8219821B82C8C18B81869537
:100C2000869586958A838B81877089838A81282F10
:100C300030E03D832C838C819D818130910509F4C6
:100C40007EC02C813D81223031052CF48C819D8128
:100C5000009771F0A8C12C813D812230310509F443
:100C6000D5C08C819D818330910509F436C19BC12B
:100C70008B81882F90E0880F991FFC01E853FE4F6D
:100C800080818130A1F4AAE3B0E0EAE3F0E0808162
:100C9000482F8981282F30E081E090E0022E02C0A9
:100CA000880F991F0A94E2F7842B8C937CC1AAE3E6
:100CB000B0E0EAE3F0E08081482F8981282F30E01E
:100CC00081E090E0022E02C0880F991F0A94E2F79B
:100CD000809584238C938B81882F90E0880F991FB7
:100CE000FC01E753FE4F80818823A1F4ABE3B0E021
:100CF000EBE3F0E08081482F8981282F30E081E00C
:100D000090E0022E02C0880F991F0A94E2F7842B0C
:100D10008C9349C1ABE3B0E0EBE3F0E08081482F76
:100D20008981282F30E081E090E0022E02C0880FF8
:100D3000991F0A94E2F7809584238C9334C18B81A8
:100D4000882F90E0880F991FFC01E853FE4F8081A7
:100D50008130A1F4A7E3B0E0E7E3F0E08081482F21
:100D60008981282F30E081E090E0022E02C0880FB8
:100D7000991F0A94E2F7842B8C9315C1A7E3B0E086
:100D8000E7E3F0E08081482F8981282F30E081E07F
:100D900090E0022E02C0880F991F0A94E2F7809516
:100DA00084238C938B81882F90E0880F991FFC01FE
:100DB000E753FE4F80818823A1F4A8E3B0E0E8E385
:100DC000F0E08081482F8981282F30E081E090E099
:100DD000022E02C0880F991F0A94E2F7842B8C938D
:100DE000E2C0A8E3B0E0E8E3F0E08081482F898129
:100DF000282F30E081E090E0022E02C0880F991F7A
:100E00000A94E2F7809584238C93CDC08B81882F40
:100E100090E0880F991FFC01E853FE4F80818130DC
:100E2000A1F4A4E3B0E0E4E3F0E08081482F8981FD
:100E3000282F30E081E090E0022E02C0880F991F39
:100E40000A94E2F7842B8C93AEC0A4E3B0E0E4E311
:100E5000F0E08081482F8981282F30E081E090E008
:100E6000022E02C0880F991F0A94E2F7809584230E
:100E70008C938B81882F90E0880F991FFC01E7539A
:100E8000FE4F80818823A1F4A5E3B0E0E5E3F0E024
:100E90008081482F8981282F30E081E090E0022E68
:100EA00002C0880F991F0A94E2F7842B8C937BC0B1
:100EB000A5E3B0E0E5E3F0E08081482F8981282FA9
:100EC00030E081E090E0022E02C0880F991F0A9462
:100ED000E2F7809584238C9366C08B81882F90E005
:100EE000880F991FFC01E853FE4F80818130A1F4E7
:100EF000A1E3B0E0E1E3F0E08081482F8981282F71
:100F000030E081E090E0022E02C0880F991F0A9421
:100F1000E2F7842B8C9347C0A1E3B0E0E1E3F0E07B
:100F20008081482F8981282F30E081E090E0022ED7
:100F300002C0880F991F0A94E2F7809584238C934E
:100F40008B81882F90E0880F991FFC01E753FE4F9B
:100F500080818823A1F4A2E3B0E0E2E3F0E08081A5
:100F6000482F8981282F30E081E090E0022E02C0D6
:100F7000880F991F0A94E2F7842B8C9314C0A2E384
:100F8000B0E0E2E3F0E08081482F8981282F30E053
:100F900081E090E0022E02C0880F991F0A94E2F7C8
:100FA000809584238C938B818F5F8B838B818032A0
:100FB00008F434CE80E00F900F900F900F900F90B8
:100FC000CF91DF910895DF93CF9300D000D000D070
:100FD000CDB7DEB78B838B81803218F021E02E8372
:100FE00077C08B818695869586958A838B8187705D
:100FF00089838A81282F30E03D832C838C819D81D9
:101000008130910549F12C813D81223031052CF44C
:101010008C819D81009761F05AC02C813D812230E6
:10102000310571F18C819D8183309105E9F14FC0CB
:10103000ABE3B0E0EBE3F0E08081482F8981282F1B
:1010400030E081E090E0022E02C0880F991F0A94E0
:10105000E2F7842B8C933BC0A8E3B0E0E8E3F0E038
:101060008081482F8981282F30E081E090E0022E96
:1010700002C0880F991F0A94E2F7842B8C9327C033
:10108000A5E3B0E0E5E3F0E08081482F8981282FD7
:1010900030E081E090E0022E02C0880F991F0A9490
:1010A000E2F7842B8C9313C0A2E3B0E0E2E3F0E01C
:1010B0008081482F8981282F30E081E090E0022E46
:1010C00002C0880F991F0A94E2F7842B8C931E822A
:1010D0008E8126960FB6F894DEBF0FBECDBFCF919E
:1010E000DF910895DF93CF9300D000D00F92CDB75A
:1010F000DEB78A836B8319828A81282F30E03D8393
:101100002C838C819D8181309105D1F02C813D8192
:10111000223031052CF48C819D81009761F01FC035
:101120002C813D812230310581F08C819D8183307D
:10113000910581F014C0EBE3F0E08B81808311C056
:10114000E8E3F0E08B8180830CC0E5E3F0E08B8185
:10115000808307C0E2E3F0E08B81808302C081E0FE
:10116000898389810F900F900F900F900F90CF91EE
:10117000DF910895DF93CF9300D000D000D0CDB79A
:10118000DEB78B838B81803218F021E02E837CC008
:101190008B818695869586958A838B8187708983D6
:1011A0008A81282F30E03D832C838C819D81813082
:1011B000910559F12C813D81223031052CF48C812F
:1011C0009D81009769F05FC02C813D8122303105FF
:1011D00089F18C819D818330910509F440C053C011
:1011E000ABE3B0E0EBE3F0E08081482F8981282F6A
:1011F00030E081E090E0022E02C0880F991F0A942F
:10120000E2F7809584238C933EC0A8E3B0E0E8E346
:10121000F0E08081482F8981282F30E081E090E044
:10122000022E02C0880F991F0A94E2F7809584234A
:101230008C9329C0A5E3B0E0E5E3F0E08081482F7E
:101240008981282F30E081E090E0022E02C0880FD3
:10125000991F0A94E2F7809584238C9314C0A2E32B
:10126000B0E0E2E3F0E08081482F8981282F30E070
:1012700081E090E0022E02C0880F991F0A94E2F7E5
:10128000809584238C931E828E8126960FB6F894C7
:10129000DEBF0FBECDBFCF91DF910895DF93CF9317
:1012A000CDB7DEB728970FB6F894DEBF0FBECDBF1F
:1012B0008B837D836C838B81803218F021E02887BB
:1012C00079C08B818695869586958A838B81877078
:1012D00089838A81482F50E05F834E838E819F816E
:1012E0008130910559F12E813F812230310534F44E
:1012F0004E815F814115510569F05BC08E819F81F0
:101300008230910579F12E813F812330310509F436
:101310003DC04FC0E9E3F0E08081282F30E08981B3
:10132000882F90E0A90102C0559547958A95E2F76C
:10133000CA018170EC81FD8180833BC0E6E3F0E06F
:101340008081282F30E08981882F90E0A90102C098
:10135000559547958A95E2F7CA018170EC81FD8128
:10136000808327C0E3E3F0E08081282F30E089818B
:10137000882F90E0A90102C0559547958A95E2F71C
:10138000CA018170EC81FD81808313C0E0E3F0E04D
:101390008081282F30E08981882F90E0A90102C048
:1013A000559547958A95E2F7CA018170EC81FD81D8
:1013B00080831886888528960FB6F894DEBF0FBE06
:1013C000CDBFCF91DF910895DF93CF9300D000D0B0
:1013D000CDB7DEB769837A838B839C8369817A81F9
:1013E0008B819C810E949503DC01CB01BC01CD0166
:1013F00020E030E040E051E40E941702DC01CB0124
:10140000BC01CD012EEA37E44BEE51E40E941702F5
:10141000DC01CB01BC01CD010E944100DC01CB010C
:1014200089839A83AB83BC830CC0000089819A8135
:10143000AB81BC810197A109B10989839A83AB83F0
:10144000BC8389819A81AB81BC810097A105B105DC
:1014500061F70F900F900F900F90CF91DF9108954B
:10146000DF93CF93CDB7DEB768E270E080E090E025
:101470000E94E40988E30E94670A8CE00E94670AE0
:1014800081E00E94670ACF91DF910895DF93CF93A7
:101490000F92CDB7DEB7898385E00E94E30786E02F
:1014A0000E94BA0883E069810E94720887E00E9466
:1014B000E30762E070E080E090E00E94E40987E0EA
:1014C0000E94BA0880E00F90CF91DF910895DF93DA
:1014D000CF930F92CDB7DEB7898385E00E94BA081B
:1014E00086E00E94BA0883E069810E94720887E062
:1014F0000E94E30762E070E080E090E00E94E4096F
:1015000087E00E94BA0880E00F90CF91DF910895A4
:10151000DF93CF9300D00F92CDB7DEB79B838A8342
:1015200019820EC08981282F30E08A819B81FC01BD
:10153000E20FF31F80810E94460A89818F5F8983B1
:101540008981282F30E08A819B81FC01E20FF31F03
:101550008081882339F780E00F900F900F90CF9112
:10156000DF910895DF93CF9300D00F92CDB7DEB710
:101570008A836B838A81882319F48B81898306C0CF
:101580008A81813019F48B81805C898389818058BC
:101590000E94670A80E00F900F900F90CF91DF912B
:1015A0000895DF93CF93CDB7DEB727970FB6F894A2
:1015B000DEBF0FBECDBF9C838B836D834E832F8395
:1015C0001A828D81882F90E0880F991F880F991FAC
:1015D000880F991F8A838A81805C0E94670A19821A
:1015E0000EC08981282F30E08B819C81FC01E20FA5
:1015F000F31F80810E94460A89818F5F89838981D8
:10160000883078F38E816F810E94B20A8D810E94AA
:10161000460A80E027960FB6F894DEBF0FBECDBF16
:10162000CF91DF910895EF92FF920F931F93DF9375
:10163000CF93CDB7DEB728970FB6F894DEBF0FBEB5
:10164000CDBF6D837E838F83988781E090E0A0E09B
:10165000B0E089839A83AB83BC8336C089819A8149
:10166000AB81BC812AE030E040E050E0BC01CD011C
:101670000E94120D7B018C018D819E81AF81B88506
:101680002AE030E040E050E0BC01CD010E94310D85
:10169000DC01CB018E0D9F1DA01FB11F89839A8392
:1016A000AB83BC838D819E81AF81B8852AE030E019
:1016B00040E050E0BC01CD010E94310DDA01C901CA
:1016C0008D839E83AF83B8878D819E81AF81B885DE
:1016D0000097A105B10511F689819A81AB81BC8182
:1016E0002AE030E040E050E0BC01CD010E94310D25
:1016F000DC01CB01805D0E94460A89819A81AB8121
:10170000BC812AE030E040E050E0BC01CD010E9405
:10171000310DDA01C90189839A83AB83BC83898146
:101720009A81AB81BC8181309105A105B105A1F6FB
:1017300080E028960FB6F894DEBF0FBECDBFCF91E4
:10174000DF911F910F91FF90EF900895DF93CF935A
:1017500000D000D0CDB7DEB789837B836A838981CF
:10176000803218F081E08C8307C02A813B81898117
:10177000B9010E944E091C828C810F900F900F902E
:101780000F90CF91DF910895DF93CF93CDB7DEB760
:101790002A970FB6F894DEBF0FBECDBF0E94030696
:1017A0000E94300A1E821D8280E18C8381E18B833E
:1017B00082E18A8383E1898381E00E94670A8D81C7
:1017C000282F2D5F80E791E060E04E810E94D10AD2
:1017D0008D81282F2E5F88E791E061E04E810E9485
:1017E000D10A8D81282F2F5F80E891E062E04E8141
:1017F0000E94D10A88E891E063E04E812D810E9429
:10180000D10A6CEB72E080E090E00E94E40964E1B0
:1018100070E080E090E00E94E4099E01295F3F4F64
:101820008C81B9010E94A60B8F81882389F58D8157
:101830008C3070F58D818E5F8D8381E00E94670A08
:101840008D81282F2D5F80E791E060E04E810E941E
:10185000D10A8D81282F2E5F88E791E061E04E81CB
:101860000E94D10A8D81282F2F5F80E891E062E0ED
:101870004E810E94D10A88E891E063E04E812D817B
:101880000E94D10A64E670E080E090E00E94E409E2
:1018900064E170E080E090E00E94E4099E01285F2E
:1018A0003F4F8B81B9010E94A60B88858823A9F53B
:1018B0008D81882F90E002968330910574F18D819F
:1018C00082508D8381E00E94670A8D81282F2D5FD1
:1018D00080E791E060E04E810E94D10A8D81282F3F
:1018E0002E5F88E791E061E04E810E94D10A8D81F0
:1018F000282F2F5F80E891E062E04E810E94D10A9C
:1019000088E891E063E04E812D810E94D10A64E66F
:1019100070E080E090E00E94E40964E170E080E023
:1019200090E00E94E4099E01275F3F4F8A81B90140
:101930000E94A60B8985882389F58E81882371F101
:101940008E8181508E8381E00E94670A8D81282FCD
:101950002D5F80E791E060E04E810E94D10A8D8189
:10196000282F2E5F88E791E061E04E810E94D10A26
:101970008D81282F2F5F80E891E062E04E810E94E8
:10198000D10A88E891E063E04E812D810E94D10A5E
:1019900064E670E080E090E00E94E40964E170E0B9
:1019A00080E090E00E94E4099E01265F3F4F89811C
:1019B000B9010E94A60B8A85882309F028CF8E8161
:1019C000882309F024CF8E818F5F8E8381E00E946F
:1019D000670A8D81282F2D5F80E791E060E04E81BE
:1019E0000E94D10A8D81282F2E5F88E791E061E067
:1019F0004E810E94D10A8D81282F2F5F80E891E0CF
:101A000062E04E810E94D10A88E891E063E04E8155
:101A10002D810E94D10A64E670E080E090E00E948F
:101A2000E409F5CE629FD001739FF001829FE00D23
:101A3000F11D649FE00DF11D929FF00D839FF00D4D
:101A4000749FF00D659FF00D9927729FB00DE11DF9
:101A5000F91F639FB00DE11DF91FBD01CF011124D6
:101A60000895A1E21A2EAA1BBB1BFD010DC0AA1FDF
:101A7000BB1FEE1FFF1FA217B307E407F50720F0F7
:101A8000A21BB30BE40BF50B661F771F881F991F72
:101A90001A9469F760957095809590959B01AC01BB
:101AA000BD01CF0108952F923F924F925F926F92A6
:101AB0007F928F929F92AF92BF92CF92DF92EF92DE
:101AC000FF920F931F93CF93DF93CDB7DEB7CA1B5F
:101AD000DB0B0FB6F894DEBF0FBECDBF09942A888A
:101AE000398848885F846E847D848C849B84AA8432
:101AF000B984C884DF80EE80FD800C811B81AA81BF
:101B0000B981CE0FD11D0FB6F894DEBF0FBECDBF89
:081B1000ED010895F894FFCFE8
:101B180000000000000000000001020203030303AC
:101B28000404040404040404050505050505050565
:101B38000505050505050505060606060606060645
:101B4800060606060606060606060606060606062D
:101B58000606060606060606070707070707070715
:101B680007070707070707070707070707070707FD
:101B780007070707070707070707070707070707ED
:101B880007070707070707070707070707070707DD
:101B980007070707070707070808080808080808C5
:101BA80008080808080808080808080808080808AD
:101BB800080808080808080808080808080808089D
:101BC800080808080808080808080808080808088D
:101BD800080808080808080808080808080808087D
:101BE800080808080808080808080808080808086D
:101BF800080808080808080808080808080808085D
:101C0800080808080808080808080808080808084C
:101C180008080808080808080E1F151F110E0404F4
:101C2800000015151F000000101010101F00000004
:101C38001F010F0B1F000000000000000102141814
:101C4800040A0E041F040E0A040A0E050E140E0AD6
:101C5800040A0E140E050E0A040A0E141F050E0AB5
:101C68000000040E1F0E0400010101010101010121
:101C780010101010101010100101010100000101D6
:101C8800010101010101010101010101010101013C
:101C98000101010101010101000000000000000034
:101CA800010101010101010101010101010101011C
:081CB80001010101010101011C
:00000001FF
