:100000000C942A000C9447000C9447000C94470071
:100010000C9447000C9447000C9447000C94470044
:100020000C9447000C9447000C9447000C94470034
:100030000C9447000C9447000C9447000C94470024
:100040000C9441100C9447000C9447000C9447000A
:100050000C94470011241FBECFE5D8E0DEBFCDBF12
:1000600011E0A0E6B0E0E8E9FBE202C005900D92E5
:10007000A83AB107D9F711E0A8EAB1E001C01D9292
:10008000A43BB107E1F70E9443150C94CA150C94E8
:100090000000EF92FF920F931F937B018C0120E0F1
:1000A00030E040E05FE40E94190388238CF0C8012F
:1000B000B70120E030E040E05FE40E94C1010E940F
:1000C00049039B01AC01205030404040504806C0DD
:1000D000C801B7010E9449039B01AC01B901CA01E3
:1000E0001F910F91FF90EF900895A0E0B0E0EBE733
:1000F000F0E00C949315DC012B01FA019C919230F5
:1001000008F439C1EB018881823008F433C194309E
:1001100069F4843009F02FC111969C91119789815F
:10012000981709F428C1A0E6B0E025C1843009F48D
:1001300021C18230A9F4923009F01DC19A01AD01AC
:1001400088E0EA010990AE01E90109929E0181501F
:10015000C1F7E201898111969C918923818308C1AD
:10016000923009F407C112962D903C901397EB0141
:100170008A819B811496AD90BD90CD90DC901797AD
:10018000EC80FD800E811F819101281B390BB90184
:1001900037FF04C066277727621B730B6032710537
:1001A0000CF061C0121613066CF537014801062EDB
:1001B00004C096948794779467940A94D2F721E0C8
:1001C00030E040E050E004C0220F331F441F551FB1
:1001D0006A95D2F721503040404050402E213F21B7
:1001E00040235123211531054105510521F021E01E
:1001F00030E040E050E079018A01E628F72808293C
:1002000019293CC0232BD1F1260E371E350146019A
:10021000062E04C096948794779467940A94D2F734
:1002200021E030E040E050E004C0220F331F441FC3
:10023000551F6A95D2F721503040404050402A2146
:100240003B214C215D21211531054105510521F04E
:1002500021E030E040E050E059016A01A628B728CB
:10026000C828D9280BC0821593052CF01C01AA249C
:10027000BB24650103C0EE24FF24870111969C91E5
:10028000D20111968C91981709F445C0992339F041
:10029000A80197012A193B094C095D0906C0A6016E
:1002A00095012E193F09400B510B57FD08C01182D3
:1002B0003382228224833583468357831DC081E0A5
:1002C00081833382228288279927DC01821B930B4A
:1002D000A40BB50B84839583A683B7830DC0220F2F
:1002E000331F441F551F24833583468357838281E0
:1002F000938101979383828324813581468157813D
:10030000DA01C9010197A109B1098F5F9F4FAF4F72
:10031000BF4328F30BC0918333822282EA0CFB1C7B
:100320000C1D1D1DE482F5820683178383E0808304
:10033000248135814681578157FF1AC0C901AA27F8
:1003400097FDA095BA2F81709070A070B0705695EF
:10035000479537952795822B932BA42BB52B848318
:100360009583A683B7838281938101969383828349
:10037000DF0101C0D201CD01CDB7DEB7E2E10C94BF
:10038000AF15A0E2B0E0E7ECF1E00C949F156983B3
:100390007A838B839C832D833E834F835887E9E048
:1003A000EE2EF12CEC0EFD1ECE010196B7010E943F
:1003B0003A058E010F5E1F4FCE010596B8010E94CF
:1003C0003A058A8991E089278A8BC701B801AE0175
:1003D000475E5F4F0E9475000E946504A096E6E0AC
:1003E0000C94BB15A0E2B0E0E8EFF1E00C949F158F
:1003F00069837A838B839C832D833E834F835887C5
:10040000F9E0EF2EF12CEC0EFD1ECE010196B701A6
:100410000E943A058E010F5E1F4FCE010596B8016E
:100420000E943A05C701B801AE01475E5F4F0E94C6
:1004300075000E946504A096E6E00C94BB15A0E24E
:10044000B0E0E5E2F2E00C94931569837A838B8344
:100450009C832D833E834F835887CE010196BE0136
:10046000675F7F4F0E943A05CE010596BE016F5E21
:100470007F4F0E943A059985923088F089898230B1
:10048000C8F0943019F4823051F404C0843029F457
:10049000923081F480E690E0C6C0923049F420E0CA
:1004A0009A858A89981321E02A87CE010996BBC0D4
:1004B000823049F420E09A858A89981321E02A8BBA
:1004C000CE014196B0C02D843E844F8458886D88FB
:1004D0007E888F88988CEE24FF248701AA24BB2471
:1004E000650140E050E060E070E0E0E0F0E0C10174
:1004F00081709070892BE9F0E60CF71C081D191D1E
:100500009A01AB012A0D3B1D4C1D5D1D80E090E062
:10051000A0E0B0E0E614F7040805190520F481E036
:1005200090E0A0E0B0E0BA01A901480F591F6A1F8E
:100530007B1FAA0CBB1CCC1CDD1C97FE08C081E0F5
:1005400090E0A0E0B0E0A82AB92ACA2ADB2A3196B6
:10055000E032F10549F0660C771C881C991C569412
:10056000479437942794C3CFFA85EA892B893C892D
:100570008B859C85280F391F2E5F3F4F17C0CA01FE
:1005800081709070892B61F016950795F794E79428
:1005900080E090E0A0E0B0E8E82AF92A0A2B1B2BC3
:1005A00076956795579547952F5F3F4F77FDE7CF36
:1005B0000CC0440F551F661F771F17FD4160EE0CDE
:1005C000FF1C001F111F21503040403090E05907A0
:1005D00090E0690790E4790760F32B8F3C8FDB0193
:1005E000CA018F779070A070B07080349105A1051A
:1005F000B10561F447FD0AC0E114F10401051105DC
:1006000029F0405C5F4F6F4F7F4F40781A8EFE1786
:1006100011F081E08A8F4D8F5E8F6F8F78A383E01A
:10062000898FCE0149960E946504A096E2E10C9460
:10063000AF15A8E1B0E0EFE1F3E00C949F156983FA
:100640007A838B839C832D833E834F83588789E0F5
:10065000E82EF12CEC0EFD1ECE010196B7010E9492
:100660003A058E010F5E1F4FCE010596B8010E941C
:100670003A058985823040F08989823028F0C701A7
:10068000B8010E94B20501C08FEF6896E6E00C94B5
:10069000BB15ACE0B0E0EFE4F3E00C94A315698384
:1006A0007A838B839C83CE010196BE016B5F7F4F63
:1006B0000E943A058D81823061F1823050F18430A0
:1006C00021F48E81882351F12EC02F81388537FD8A
:1006D00020C06E812F3131051CF06623F9F023C054
:1006E0008EE190E0821B930B29853A854B855C85D2
:1006F00004C056954795379527958A95D2F7662376
:10070000B1F050954095309521953F4F4F4F5F4F39
:100710000EC020E030E040E050E009C02FEF3FEF96
:100720004FEF5FE704C020E030E040E050E8B9015F
:10073000CA012C96E2E00C94BF15A8E0B0E0E3EA11
:10074000F3E00C949B157B018C016115710581050B
:10075000910519F482E0898360C083E089838EE18A
:10076000C82ED12CDC82CB82ED82FE820F831887CB
:10077000C801B7010E941604FC013197F7FF3BC086
:10078000222733272E1B3F0B57016801022E04C07E
:10079000D694C794B794A7940A94D2F740E050E057
:1007A00060E070E081E090E0A0E0B0E004C0880F7D
:1007B000991FAA1FBB1F2A95D2F70197A109B1095A
:1007C0008E219F21A023B1230097A105B10521F01F
:1007D00041E050E060E070E04A295B296C297D2906
:1007E0004D835E836F8378878EE190E08E1B9F0B35
:1007F0009C838B8312C0309781F00E2E04C0EE0CC8
:10080000FF1C001F111F0A94D2F7ED82FE820F8396
:100810001887CE1ADF0ADC82CB821A82CE010196BB
:100820000E9465042896EAE00C94B715EF92FF92B7
:100830000F931F937B018C0180E0E81680E0F8069F
:1008400081E0080780E0180788F48FEFE816F104CC
:100850000105110531F028F088E090E0A0E0B0E05B
:1008600017C080E090E0A0E0B0E012C080E0E816A1
:1008700080E0F80680E0080781E0180728F088E1AA
:1008800090E0A0E0B0E004C080E190E0A0E0B0E043
:1008900020E230E040E050E0281B390B4A0B5B0BB4
:1008A00004C016950795F794E7948A95D2F7F70157
:1008B000E859FF4F8081281B310941095109C901BD
:1008C0001F910F91FF90EF900895DF92EF92FF92AA
:1008D0000F931F93FC01E480F58006811781D1807E
:1008E0008081823048F480E090E0A0E1B0E0E82A26
:1008F000F92A0A2B1B2BA5C0843009F49FC0823033
:1009000021F4EE24FF24870105C0E114F104010560
:10091000110519F4E0E0F0E096C0628173819FEF69
:10092000623879070CF05BC022E83FEF261B370BDB
:100930002A3131052CF020E030E040E050E02AC0C0
:10094000B801A701022E04C0769567955795479583
:100950000A94D2F781E090E0A0E0B0E004C0880FF4
:10096000991FAA1FBB1F2A95D2F70197A109B109A8
:100970008E219F21A023B1230097A105B10521F06D
:1009800081E090E0A0E0B0E09A01AB01282B392B88
:100990004A2B5B2BDA01C9018F779070A070B07081
:1009A00080349105A105B10539F427FF09C0205C09
:1009B0003F4F4F4F5F4F04C0215C3F4F4F4F5F4F42
:1009C000E0E0F0E02030A0E03A07A0E04A07A0E431
:1009D0005A0710F0E1E0F0E079018A0127C06038A1
:1009E000710564F5FB01E158FF4FD801C7018F770E
:1009F0009070A070B07080349105A105B10539F4F4
:100A0000E7FE0DC080E490E0A0E0B0E004C08FE31A
:100A100090E0A0E0B0E0E80EF91E0A1F1B1F17FFD0
:100A200005C016950795F794E794319687E01695DB
:100A30000795F794E7948A95D1F705C0EE24FF2433
:100A40008701EFEFF0E06E2F679566276795902F8F
:100A50009F77D794DD24D7948E2F8695492F462BE8
:100A6000582F5D29B701CA011F910F91FF90EF9098
:100A7000DF900895FC01DB01408151812281622FCA
:100A80006F7770E0221F2227221F9381892F880F02
:100A9000822B282F30E0991F9927991F11969C933C
:100AA000119721153105A9F541155105610571050C
:100AB00011F482E037C082E89FEF13969C938E93E7
:100AC00012979A01AB0167E0220F331F441F551F95
:100AD0006A95D1F783E08C930DC0220F331F441F1A
:100AE000551F12968D919C911397019713969C9385
:100AF0008E931297203080E0380780E0480780E42A
:100B0000580758F314962D933D934D935C93179784
:100B100008952F3F310579F441155105610571059F
:100B200019F484E08C93089564FF03C081E08C93F2
:100B300012C01C9210C02F57304013963C932E9336
:100B4000129783E08C9387E0440F551F661F771F31
:100B50008A95D1F7706414964D935D936D937C9351
:100B6000179708951F93DC01FB019C91923008F4C4
:100B700047C08081823008F443C0943051F411960C
:100B80001C91843099F58181682F70E0611B710997
:100B90003FC0843021F0923031F48230B9F181814C
:100BA000882389F12DC011961C9111978230F1F0A4
:100BB00081811817D9F412962D913C911397828157
:100BC00093818217930794F028173907BCF0149685
:100BD0008D919D910D90BC91A02D248135814681F0
:100BE0005781281739074A075B0718F4112341F08A
:100BF0000AC082179307A407B50740F4112319F020
:100C000061E070E005C06FEF7FEF02C060E070E070
:100C1000CB011F910895DF93CF93CDB7DEB72C970B
:100C20000FB6F894DEBF0FBECDBF89836A8389817A
:100C3000282F30E03C872B878B859C858130910560
:100C400009F495C02B853C85223031052CF48B8529
:100C50009C85009771F004C22B853C8522303105BC
:100C600009F403C18B859C858330910509F47BC110
:100C7000F7C18A81282F30E03A87298789859A85AC
:100C80008430910509F455C029853A852530310510
:100C9000DCF489859A858130910509F43BC029856A
:100CA0003A85223031052CF489859A85009769F1BF
:100CB000D7C129853A852230310589F189859A8500
:100CC0008330910589F1CCC129853A8527303105DA
:100CD00009F43EC089859A85883091055CF42985A0
:100CE0003A852530310551F189859A8586309105FF
:100CF00051F1B6C129853A852830310571F18985D0
:100D00009A858930910571F1ABC1EBE3F0E08FE397
:100D10008083A6C1EBE3F0E086E08083A1C1EBE332
:100D2000F0E08BE580839CC1EBE3F0E08FE480830F
:100D300097C1EBE3F0E086E6808392C1EBE3F0E05D
:100D40008DE680838DC1EBE3F0E08DE7808388C181
:100D5000EBE3F0E087E0808383C1EBE3F0E08FE733
:100D600080837EC1EBE3F0E08FE6808379C18A81E6
:100D7000282F30E038872F838F8198858430910524
:100D800009F455C02F81388525303105DCF48F8179
:100D900098858130910509F43BC02F813885223038
:100DA00031052CF48F819885009769F159C12F8105
:100DB00038852230310589F18F81988583309105FE
:100DC00089F14EC12F8138852730310509F43EC0A5
:100DD0008F819885883091055CF42F813885253086
:100DE000310551F18F8198858630910551F138C1D7
:100DF0002F8138852830310571F18F8198858930B0
:100E0000910571F12DC1E8E3F0E08FE3808328C103
:100E1000E8E3F0E086E0808323C1E8E3F0E08BE5DF
:100E200080831EC1E8E3F0E08FE4808319C1E8E32A
:100E3000F0E086E6808314C1E8E3F0E08DE680838D
:100E40000FC1E8E3F0E08DE780830AC1E8E3F0E05A
:100E500087E0808305C1E8E3F0E08FE7808300C18D
:100E6000E8E3F0E08FE68083FBC08A81282F30E042
:100E70003E832D838D819E818430910509F455C078
:100E80002D813E8125303105DCF48D819E818130BC
:100E9000910509F43BC02D813E81223031052CF4AF
:100EA0008D819E81009769F1DBC02D813E812230CA
:100EB000310589F18D819E818330910589F1D0C002
:100EC0002D813E812730310509F43EC08D819E8100
:100ED000883091055CF42D813E812530310551F13A
:100EE0008D819E818630910551F1BAC02D813E8160
:100EF0002830310571F18D819E818930910571F124
:100F0000AFC0E5E3F0E08FE38083AAC0E5E3F0E063
:100F100086E08083A5C0E5E3F0E08BE58083A0C098
:100F2000E5E3F0E08FE480839BC0E5E3F0E086E654
:100F3000808396C0E5E3F0E08DE6808391C0E5E331
:100F4000F0E08DE780838CC0E5E3F0E087E080830C
:100F500087C0E5E3F0E08FE7808382C0E5E3F0E05F
:100F60008FE680837DC08A81282F30E03C832B83ED
:100F70008B819C818430910509F455C02B813C8183
:100F800025303105DCF48B819C818130910509F499
:100F90003BC02B813C81223031052CF48B819C811C
:100FA000009769F15DC02B813C812230310589F1C8
:100FB0008B819C818330910589F152C02B813C81CA
:100FC0002730310509F43EC08B819C818830910522
:100FD0005CF42B813C812530310551F18B819C8162
:100FE0008630910551F13CC02B813C812830310580
:100FF00071F18B819C818930910571F131C0E2E3FF
:10100000F0E08FE380832CC0E2E3F0E086E08083B1
:1010100027C0E2E3F0E08BE5808322C0E2E3F0E06A
:101020008FE480831DC0E2E3F0E086E6808318C091
:10103000E2E3F0E08DE6808313C0E2E3F0E08DE7C9
:1010400080830EC0E2E3F0E087E0808309C0E2E342
:10105000F0E08FE7808304C0E2E3F0E08FE6808376
:1010600080E02C960FB6F894DEBF0FBECDBFCF91B7
:10107000DF910895DF93CF9300D00F92CDB7DEB705
:1010800089838981282F30E03B832A838A819B8151
:101090008133910509F4B4C42A813B81223331059F
:1010A0000CF077C18A819B818831910509F4C7C30F
:1010B0002A813B81293131050CF0B5C08A819B81A1
:1010C0008B30910509F446C32A813B812C303105D0
:1010D0000CF054C08A819B818530910509F404C3CA
:1010E0002A813B812630310524F58A819B8182301B
:1010F000910509F4DEC22A813B812330310564F475
:101100008A819B81009709F4C2C22A813B812130E8
:10111000310509F4C5C23EC68A819B8183309105A1
:1011200009F4D0C22A813B812430310509F4D3C2AD
:1011300031C68A819B818830910509F4F0C22A81E9
:101140003B81293031056CF48A819B818630910581
:1011500009F4D3C22A813B812730310509F4D6C274
:1011600019C68A819B818930910509F4E1C22A81DF
:101170003B812A30310509F4E4C20CC68A819B8187
:101180008131910509F41CC32A813B81223131054B
:101190002CF58A819B818E30910509F4F6C22A8153
:1011A0003B812F3031056CF48A819B818C30910515
:1011B00009F4D9C22A813B812D30310509F4DCC202
:1011C000E9C58A819B818F30910509F4E7C22A81A4
:1011D0003B812031310509F4EAC2DCC58A819B815B
:1011E0008431910509F407C32A813B8125313105FA
:1011F0006CF48A819B818231910509F4EAC22A81CB
:101200003B812331310509F4EDC2C4C58A819B813C
:101210008631910509F401C32A813B8127313105CB
:101220000CF004C3F1C28A819B818432910509F4D8
:1012300072C32A813B81253231050CF055C08A8169
:101240009B818E31910509F430C32A813B812F3176
:1012500031052CF58A819B818B31910509F40AC3F4
:101260002A813B812C3131056CF48A819B81893143
:10127000910509F4EDC22A813B812A31310509F437
:10128000F0C288C58A819B818C31910509F4FBC22B
:101290002A813B812D31310509F4FEC27BC58A814B
:1012A0009B818132910509F41BC32A813B81223243
:1012B00031056CF48A819B818F31910509F4FEC25E
:1012C0002A813B812032310509F401C363C58A813B
:1012D0009B818232910509F40CC32A813B81233220
:1012E000310509F40FC356C58A819B818A32910565
:1012F00009F447C32A813B812B3231052CF58A81C1
:101300009B818732910509F421C32A813B812832D0
:1013100031056CF48A819B818532910509F404C3FF
:101320002A813B812632310509F407C333C58A81FE
:101330009B818832910509F412C32A813B812932AD
:10134000310509F415C326C58A819B818D3291052B
:1013500009F432C32A813B812E3231056CF48A8133
:101360009B818B32910509F415C32A813B812C3274
:10137000310509F418C30EC58A819B818F3291050E
:1013800009F42CC32A813B81203331050CF02FC393
:101390001CC38A819B818A34910509F412C42A8175
:1013A0003B812B3431050CF0B6C08A819B818D3393
:1013B000910509F491C32A813B812E3331050CF04C
:1013C00055C08A819B818733910509F44FC32A81D7
:1013D0003B81283331052CF58A819B81843391052B
:1013E00009F429C32A813B81253331056CF48A81B4
:1013F0009B818233910509F40CC32A813B812333FD
:10140000310509F40FC3C6C48A819B8185339105D8
:1014100009F41AC32A813B812633310509F41DC31F
:10142000B9C48A819B818A33910509F43AC32A8120
:101430003B812B3331056CF48A819B818833910584
:1014400009F41DC32A813B812933310509F420C3E6
:10145000A1C48A819B818B33910509F42BC32A8116
:101460003B812C33310509F42EC394C48A819B81BE
:101470008334910509F466C32A813B812434310504
:101480002CF58A819B818034910509F440C32A811F
:101490003B81213431056CF48A819B818E33910527
:1014A00009F423C32A813B812F33310509F426C374
:1014B00071C48A819B818134910509F431C32A81E9
:1014C0003B812234310509F434C364C48A819B8191
:1014D0008634910509F451C32A813B8127343105B3
:1014E0006CF48A819B818434910509F434C32A8188
:1014F0003B812534310509F437C34CC48A819B8173
:101500008834910509F44BC32A813B812934310584
:101510000CF04EC33BC38A819B818735910509F44A
:10152000C5C32A813B81283531050CF055C08A811D
:101530009B818035910509F47AC32A813B8121354D
:1015400031052CF58A819B818D34910509F454C3B2
:101550002A813B812E3431056CF48A819B818B3446
:10156000910509F437C32A813B812C34310509F4F4
:101570003AC310C48A819B818E34910509F445C316
:101580002A813B812F34310509F448C303C48A8181
:101590009B818335910509F465C32A813B812435FC
:1015A00031056CF48A819B818135910509F448C32A
:1015B0002A813B812235310509F44BC3EBC38A8173
:1015C0009B818535910509F45FC32A813B812635CE
:1015D00031050CF062C34FC38A819B818D35910523
:1015E00009F49AC32A813B812E3531052CF58A8175
:1015F0009B818A35910509F474C32A813B812B357F
:1016000031056CF48A819B818835910509F457C3B3
:101610002A813B812935310509F45AC3BBC38A812C
:101620009B818B35910509F465C32A813B812C355B
:10163000310509F468C3AEC38A819B818036910568
:1016400009F485C32A813B81213631056CF48A81F6
:101650009B818E35910509F468C32A813B812F3522
:10166000310509F46BC396C38A819B81823691054B
:1016700009F47FC32A813B81223631050CF470C303
:101680008A819B818336910509F47CC383C382E000
:1016900060E00E940B0681E060E00E940B067AC3C6
:1016A00082E061E00E940B0681E060E00E940B0690
:1016B00071C382E062E00E940B0681E060E00E945C
:1016C0000B0668C382E063E00E940B0681E060E0E5
:1016D0000E940B065FC382E064E00E940B0681E07B
:1016E00060E00E940B0656C382E065E00E940B0694
:1016F00081E060E00E940B064DC382E066E00E943C
:101700000B0681E060E00E940B0644C382E067E0C4
:101710000E940B0681E060E00E940B063BC382E062
:1017200068E00E940B0681E060E00E940B0632C375
:1017300082E069E00E940B0681E060E00E940B06F7
:1017400029C382E060E00E940B0681E061E00E9414
:101750000B0620C382E061E00E940B0681E061E09D
:101760000E940B0617C382E062E00E940B0681E034
:1017700061E00E940B060EC382E063E00E940B064C
:1017800081E061E00E940B0605C382E064E00E94F4
:101790000B0681E061E00E940B06FCC282E065E07E
:1017A0000E940B0681E061E00E940B06F3C282E01A
:1017B00066E00E940B0681E061E00E940B06EAC22F
:1017C00082E067E00E940B0681E061E00E940B0668
:1017D000E1C282E068E00E940B0681E061E00E94C5
:1017E0000B06D8C282E069E00E940B0681E061E04E
:1017F0000E940B06CFC282E060E00E940B0681E0EF
:1018000062E00E940B06C6C282E061E00E940B0605
:1018100081E062E00E940B06BDC282E062E00E94AD
:101820000B0681E062E00E940B06B4C282E063E036
:101830000E940B0681E062E00E940B06ABC282E0D0
:1018400064E00E940B0681E062E00E940B06A2C2E7
:1018500082E065E00E940B0681E062E00E940B06D8
:1018600099C282E066E00E940B0681E062E00E947D
:101870000B0690C282E067E00E940B0681E062E006
:101880000E940B0687C282E068E00E940B0681E09E
:1018900062E00E940B067EC282E069E00E940B06B5
:1018A00081E062E00E940B0675C282E060E00E9467
:1018B0000B0681E063E00E940B066CC282E061E0EF
:1018C0000E940B0681E063E00E940B0663C282E087
:1018D00062E00E940B0681E063E00E940B065AC2A0
:1018E00082E063E00E940B0681E063E00E940B0649
:1018F00051C282E064E00E940B0681E063E00E9436
:101900000B0648C282E065E00E940B0681E063E0BE
:101910000E940B063FC282E066E00E940B0681E057
:1019200063E00E940B0636C282E067E00E940B066D
:1019300081E063E00E940B062DC282E068E00E9415
:101940000B0681E063E00E940B0624C282E069E09E
:101950000E940B0681E063E00E940B061BC282E03E
:1019600060E00E940B0681E064E00E940B0612C258
:1019700082E061E00E940B0681E064E00E940B06B9
:1019800009C282E062E00E940B0681E064E00E94EE
:101990000B0600C282E063E00E940B0681E064E077
:1019A0000E940B06F7C182E064E00E940B0681E012
:1019B00064E00E940B06EEC182E065E00E940B0627
:1019C00081E064E00E940B06E5C182E066E00E94CF
:1019D0000B0681E064E00E940B06DCC182E067E058
:1019E0000E940B0681E064E00E940B06D3C182E0F6
:1019F00068E00E940B0681E064E00E940B06CAC109
:101A000082E069E00E940B0681E064E00E940B0620
:101A1000C1C182E060E00E940B0681E063E00E94A9
:101A20000B06B8C182E061E00E940B0681E065E030
:101A30000E940B06AFC182E062E00E940B0681E0CB
:101A400065E00E940B06A6C182E063E00E940B06DF
:101A500081E065E00E940B069DC182E064E00E9487
:101A60000B0681E065E00E940B0694C182E065E010
:101A70000E940B0681E065E00E940B068BC182E0AC
:101A800066E00E940B0681E065E00E940B0682C1C1
:101A900082E067E00E940B0681E065E00E940B0691
:101AA00079C182E068E00E940B0681E065E00E9457
:101AB0000B0670C182E069E00E940B0681E065E0E0
:101AC0000E940B0667C182E060E00E940B0681E085
:101AD00066E00E940B065EC182E061E00E940B0698
:101AE00081E066E00E940B0655C182E062E00E9440
:101AF0000B0681E066E00E940B064CC182E063E0C9
:101B00000E940B0681E066E00E940B0643C182E062
:101B100064E00E940B0681E066E00E940B063AC179
:101B200082E065E00E940B0681E066E00E940B0601
:101B300031C182E066E00E940B0681E066E00E940F
:101B40000B0628C182E067E00E940B0681E066E098
:101B50000E940B061FC182E068E00E940B0681E034
:101B600066E00E940B0616C182E069E00E940B0647
:101B700081E066E00E940B060DC182E060E00E94F9
:101B80000B0681E067E00E940B0604C182E061E081
:101B90000E940B0681E067E00E940B06FBC082E01A
:101BA00062E00E940B0681E067E00E940B06F2C033
:101BB00082E063E00E940B0681E067E00E940B0672
:101BC000E9C082E064E00E940B0681E067E00E94C9
:101BD0000B06E0C082E065E00E940B0681E067E052
:101BE0000E940B06D7C082E066E00E940B0681E0EF
:101BF00067E00E940B06CEC082E067E00E940B0601
:101C000081E067E00E940B06C5C082E068E00E94A8
:101C10000B0681E067E00E940B06BCC082E069E031
:101C20000E940B0681E067E00E940B06B3C082E0D1
:101C300060E00E940B0681E068E00E940B06AAC0EB
:101C400082E061E00E940B0681E068E00E940B06E2
:101C5000A1C082E062E00E940B0681E068E00E9481
:101C60000B0698C082E063E00E940B0681E068E00A
:101C70000E940B068FC082E064E00E940B0681E0A8
:101C800068E00E940B0686C082E065E00E940B06B9
:101C900081E068E00E940B067DC082E066E00E9461
:101CA0000B0681E068E00E940B0674C082E067E0EA
:101CB0000E940B0681E068E00E940B066BC082E088
:101CC00068E00E940B0681E068E00E940B0662C09B
:101CD00082E069E00E940B0681E068E00E940B064A
:101CE00059C082E060E00E940B0681E069E00E943A
:101CF0000B0650C082E061E00E940B0681E069E0C3
:101D00000E940B0647C082E062E00E940B0681E061
:101D100069E00E940B063EC082E063E00E940B0671
:101D200081E069E00E940B0635C082E064E00E9419
:101D30000B0681E069E00E940B062CC082E065E0A2
:101D40000E940B0681E069E00E940B0623C082E03E
:101D500066E00E940B0681E069E00E940B061AC053
:101D600082E067E00E940B0681E069E00E940B06BA
:101D700011C082E068E00E940B0681E069E00E94E9
:101D80000B0608C082E069E00E940B0681E069E072
:101D90000E940B060F900F900F90CF91DF91089546
:101DA000DF93CF93CDB7DEB7A7E2B0E0E7E2F0E094
:101DB000808180648C93A7E2B0E0E7E2F0E080816C
:101DC0008F778C93A7E2B0E0E7E2F0E08081806259
:101DD0008C93A6E2B0E0E6E2F0E0808184608C9330
:101DE000A6E2B0E0E6E2F0E0808182608C93A6E2B9
:101DF000B0E0E6E2F0E0808181608C93A6E2B0E0A2
:101E0000E6E2F0E0808180688C93CF91DF910895C5
:101E1000DF93CF93CDB7DEB728970FB6F894DEBF28
:101E20000FBECDBF8E8378876F831A821B821C8280
:101E30001D8219828091AC01882309F05BC081E08A
:101E40008093AC01A7E2B0E0E7E2F0E08081807E21
:101E50008C93A7E2B0E0E7E2F0E090818E81892BDD
:101E60008C93A6E2B0E0E6E2F0E0808180648C939F
:101E70000BC08A819B81AC81BD810196A11DB11DE2
:101E80008A839B83AC83BD83E6E2F0E08081829508
:101E90008F70882F90E081709070009761F48A8134
:101EA0009B81AC81BD81883823E1920720E0A207A5
:101EB00020E0B207F1F68A819B81AC81BD81883830
:101EC00023E1920720E0A20720E0B20719F481E0A5
:101ED000898311C0A6E2B0E0E6E2F0E08081806193
:101EE0008C93E5E2F0E08081EF81F88580831092A9
:101EF000AC0101C01982898128960FB6F894DEBF23
:101F00000FBECDBFCF91DF910895DF93CF9300D067
:101F100000D000D0CDB7DEB78A837C836B835E832D
:101F20004D8319828091AC018823D1F58B819C81EE
:101F3000009721F08D819E81009719F482E08983BA
:101F400030C081E08093AC011092B3018B819C8101
:101F50009093A9018093A8018D819E819093AB01FC
:101F60008093AA01A7E2B0E0E7E2F0E08081807E02
:101F70008C93A7E2B0E0E7E2F0E090818A81892BC0
:101F80008C93A6E2B0E0E6E2F0E0808180648C937E
:101F9000A6E2B0E0E6E2F0E0808188608C9301C0C8
:101FA0001982898126960FB6F894DEBF0FBECDBF89
:101FB000CF91DF910895DF93CF9300D00F92CDB7EB
:101FC000DEB79B838A8319828A819B81009719F4EB
:101FD00082E089834FC08091AC01882309F049C019
:101FE00081E08093AC0181E08093B301EA81FB81C1
:101FF000808191819093AE018093AD01EA81FB8154
:10200000828193819093B0018093AF01EA81FB813B
:10201000858196819093AB018093AA011092B101C2
:10202000A7E2B0E0E7E2F0E08081807E8C93A7E257
:10203000B0E0E7E2F0E040812091AD013091AE01E7
:102040008091B101882F90E0F901E80FF91F80819C
:10205000842B8C93A6E2B0E0E6E2F0E0808180641D
:102060008C93A6E2B0E0E6E2F0E0808188608C9399
:1020700001C0198289810F900F900F90CF91DF914D
:1020800008951F920F920FB60F9211242F933F9332
:102090004F935F936F937F938F939F93AF93BF9370
:1020A000EF93FF93DF93CF93CDB7DEB78091B3016A
:1020B0008823B9F4A091A801B091A901E5E2F0E06C
:1020C00080818C931092AC01E091AA01F091AB0158
:1020D0000995A6E2B0E0E6E2F0E08081877F8C938C
:1020E00055C08091B301813009F050C02091AF01FB
:1020F0003091B0018091B101882F90E0880F991F35
:10210000D901A80FB91FE5E2F0E08081882F90E0A7
:1021100011969C938E938091B1018F5F8093B10152
:102120009091B1018091B201981779F41092AC01AD
:10213000E091AA01F091AB010995A6E2B0E0E6E2D8
:10214000F0E08081877F8C9321C0A7E2B0E0E7E2D6
:10215000F0E08081807E8C93A7E2B0E0E7E2F0E0DF
:1021600040812091AD013091AE018091B101882F65
:1021700090E0F901E80FF91F8081842B8C93A6E28F
:10218000B0E0E6E2F0E0808180648C93CF91DF9153
:10219000FF91EF91BF91AF919F918F917F916F913F
:1021A0005F914F913F912F910F900FBE0F901F9015
:1021B0001895DF93CF9300D000D00F92CDB7DEB744
:1021C0001A8219821B82C8C18B8186958695869555
:1021D0008A838B81877089838A81282F30E03D83B1
:1021E0002C838C819D818130910509F47EC02C81E6
:1021F0003D81223031052CF48C819D81009771F056
:10220000A8C12C813D812230310509F4D5C08C81D3
:102210009D818330910509F436C19BC18B81882F44
:1022200090E0880F991FFC01E859FE4F80818130B2
:10223000A1F4AAE3B0E0EAE3F0E08081482F8981CD
:10224000282F30E081E090E0022E02C0880F991F15
:102250000A94E2F7842B8C937CC1AAE3B0E0EAE312
:10226000F0E08081482F8981282F30E081E090E0E4
:10227000022E02C0880F991F0A94E2F780958423EA
:102280008C938B81882F90E0880F991FFC01E75970
:10229000FE4F80818823A1F4ABE3B0E0EBE3F0E0F4
:1022A0008081482F8981282F30E081E090E0022E44
:1022B00002C0880F991F0A94E2F7842B8C9349C1BE
:1022C000ABE3B0E0EBE3F0E08081482F8981282F79
:1022D00030E081E090E0022E02C0880F991F0A943E
:1022E000E2F7809584238C9334C18B81882F90E012
:1022F000880F991FFC01E859FE4F80818130A1F4BD
:10230000A7E3B0E0E7E3F0E08081482F8981282F40
:1023100030E081E090E0022E02C0880F991F0A94FD
:10232000E2F7842B8C9315C1A7E3B0E0E7E3F0E07C
:102330008081482F8981282F30E081E090E0022EB3
:1023400002C0880F991F0A94E2F7809584238C932A
:102350008B81882F90E0880F991FFC01E759FE4F71
:1023600080818823A1F4A8E3B0E0E8E3F0E0808175
:10237000482F8981282F30E081E090E0022E02C0B2
:10238000880F991F0A94E2F7842B8C93E2C0A8E38C
:10239000B0E0E8E3F0E08081482F8981282F30E029
:1023A00081E090E0022E02C0880F991F0A94E2F7A4
:1023B000809584238C93CDC08B81882F90E0880FEB
:1023C000991FFC01E859FE4F80818130A1F4A4E3FC
:1023D000B0E0E4E3F0E08081482F8981282F30E0ED
:1023E00081E090E0022E02C0880F991F0A94E2F764
:1023F000842B8C93AEC0A4E3B0E0E4E3F0E08081F2
:10240000482F8981282F30E081E090E0022E02C021
:10241000880F991F0A94E2F7809584238C938B810F
:10242000882F90E0880F991FFC01E759FE4F8081AB
:102430008823A1F4A5E3B0E0E5E3F0E08081482F34
:102440008981282F30E081E090E0022E02C0880FC1
:10245000991F0A94E2F7842B8C937BC0A5E3B0E02C
:10246000E5E3F0E08081482F8981282F30E081E08A
:1024700090E0022E02C0880F991F0A94E2F780951F
:1024800084238C9366C08B81882F90E0880F991FDE
:10249000FC01E859FE4F80818130A1F4A1E3B0E056
:1024A000E1E3F0E08081482F8981282F30E081E04E
:1024B00090E0022E02C0880F991F0A94E2F7842B45
:1024C0008C9347C0A1E3B0E0E1E3F0E08081482FC6
:1024D0008981282F30E081E090E0022E02C0880F31
:1024E000991F0A94E2F7809584238C938B81882F1F
:1024F00090E0880F991FFC01E759FE4F80818823E7
:10250000A1F4A2E3B0E0E2E3F0E08081482F89810A
:10251000282F30E081E090E0022E02C0880F991F42
:102520000A94E2F7842B8C9314C0A2E3B0E0E2E3B8
:10253000F0E08081482F8981282F30E081E090E011
:10254000022E02C0880F991F0A94E2F78095842317
:102550008C938B818F5F8B838B81803208F434CE98
:1025600080E00F900F900F900F900F90CF91DF9120
:102570000895DF93CF9300D000D000D0CDB7DEB761
:102580008B838B81803218F021E02E8377C08B8182
:102590008695869586958A838B81877089838A81C3
:1025A000282F30E03D832C838C819D8181309105E3
:1025B00049F12C813D81223031052CF48C819D81A3
:1025C000009761F05AC02C813D812230310571F1B4
:1025D0008C819D8183309105E9F14FC0ABE3B0E080
:1025E000EBE3F0E08081482F8981282F30E081E003
:1025F00090E0022E02C0880F991F0A94E2F7842B04
:102600008C933BC0A8E3B0E0E8E3F0E08081482F82
:102610008981282F30E081E090E0022E02C0880FEF
:10262000991F0A94E2F7842B8C9327C0A5E3B0E0AE
:10263000E5E3F0E08081482F8981282F30E081E0B8
:1026400090E0022E02C0880F991F0A94E2F7842BB3
:102650008C9313C0A2E3B0E0E2E3F0E08081482F66
:102660008981282F30E081E090E0022E02C0880F9F
:10267000991F0A94E2F7842B8C931E828E812696F2
:102680000FB6F894DEBF0FBECDBFCF91DF91089596
:10269000DF93CF9300D000D000D0CDB7DEB78B83CF
:1026A0008B81803218F021E02E837CC08B8186954F
:1026B000869586958A838B81877089838A81282F66
:1026C00030E03D832C838C819D818130910559F1CF
:1026D0002C813D81223031052CF48C819D81009725
:1026E00069F05FC02C813D812230310589F18C81F8
:1026F0009D818330910509F440C053C0ABE3B0E045
:10270000EBE3F0E08081482F8981282F30E081E0E1
:1027100090E0022E02C0880F991F0A94E2F780957C
:1027200084238C933EC0A8E3B0E0E8E3F0E080812E
:10273000482F8981282F30E081E090E0022E02C0EE
:10274000880F991F0A94E2F7809584238C9329C0FF
:10275000A5E3B0E0E5E3F0E08081482F8981282FF0
:1027600030E081E090E0022E02C0880F991F0A94A9
:10277000E2F7809584238C9314C0A2E3B0E0E2E3F7
:10278000F0E08081482F8981282F30E081E090E0BF
:10279000022E02C0880F991F0A94E2F780958423C5
:1027A0008C931E828E8126960FB6F894DEBF0FBEE4
:1027B000CDBFCF91DF910895DF93CF93CDB7DEB733
:1027C00028970FB6F894DEBF0FBECDBF8B837D83F5
:1027D0006C838B81803218F021E0288779C08B814F
:1027E0008695869586958A838B81877089838A8171
:1027F000482F50E05F834E838E819F818130910509
:1028000059F12E813F812230310534F44E815F81B0
:102810004115510569F05BC08E819F818230910521
:1028200079F12E813F812330310509F43DC04FC03D
:10283000E9E3F0E08081282F30E08981882F90E063
:10284000A90102C0559547958A95E2F7CA018170A2
:10285000EC81FD8180833BC0E6E3F0E08081282F9E
:1028600030E08981882F90E0A90102C055954795F5
:102870008A95E2F7CA018170EC81FD81808327C0CF
:10288000E3E3F0E08081282F30E08981882F90E019
:10289000A90102C0559547958A95E2F7CA01817052
:1028A000EC81FD81808313C0E0E3F0E08081282F7C
:1028B00030E08981882F90E0A90102C055954795A5
:1028C0008A95E2F7CA018170EC81FD8180831886C8
:1028D000888528960FB6F894DEBF0FBECDBFCF9186
:1028E000DF910895DF93CF9300D000D0CDB7DEB74E
:1028F00069837A838B839C8369817A818B819C81B4
:102900000E949D03DC01CB01BC01CD0120E030E041
:1029100040E051E40E941F02DC01CB01BC01CD016B
:102920002EEA37E44BEE51E40E941F02DC01CB019A
:10293000BC01CD010E944900DC01CB0189839A834F
:10294000AB83BC830CC0000089819A81AB81BC81C0
:102950000197A109B10989839A83AB83BC838981DB
:102960009A81AB81BC810097A105B10561F70F90F9
:102970000F900F900F90CF91DF910895DF93CF9339
:1029800000D00F92CDB7DEB79A8389838A818132D6
:1029900018F081E08B830BC08981813021F48A811A
:1029A0000E94B91203C08A810E9448131B828B8146
:1029B0000F900F900F90CF91DF910895DF93CF93F9
:1029C00000D00F92CDB7DEB79A8389838A81813296
:1029D00018F081E08B830BC08981813021F48A81DA
:1029E0000E94481303C08A810E94B9121B828B8106
:1029F0000F900F900F90CF91DF910895DF93CF93B9
:102A0000CDB7DEB728970FB6F894DEBF0FBECDBFA7
:102A10009E838D8378876F831C821B821A82198222
:102A20008F819885009719F482E08C8322C08D8174
:102A30009E81CC01A0E0B0E028E833E140E050E026
:102A4000BC01CD010E946015DC01CB01892F9A2FBA
:102A5000AB2FBB279B838A838A819B812AE030E04E
:102A6000B9010E947F15CB018983EF81F8858981A7
:102A700080838C8128960FB6F894DEBF0FBECDBF41
:102A8000CF91DF910895DF93CF9300D00F92CDB710
:102A9000DEB70E94D9100E94D00E9E012F5F3F4FDB
:102AA00082E0B9010E94080F89819A819E012D5F01
:102AB0003F4FB9010E94FE148B810E943A08EDCF6E
:102AC000629FD001739FF001829FE00DF11D649F12
:102AD000E00DF11D929FF00D839FF00D749FF00D9E
:102AE000659FF00D9927729FB00DE11DF91F639F3F
:102AF000B00DE11DF91FBD01CF0111240895AA1BDE
:102B0000BB1B51E107C0AA1FBB1FA617B70710F0D8
:102B1000A61BB70B881F991F5A95A9F7809590950A
:102B2000BC01CD0108952F923F924F925F926F9218
:102B30007F928F929F92AF92BF92CF92DF92EF924D
:102B4000FF920F931F93CF93DF93CDB7DEB7CA1BCE
:102B5000DB0B0FB6F894DEBF0FBECDBF09942A88F9
:102B6000398848885F846E847D848C849B84AA84A1
:102B7000B984C884DF80EE80FD800C811B81AA812E
:102B8000B981CE0FD11D0FB6F894DEBF0FBECDBFF9
:082B9000ED010895F894FFCF58
:102B9800000000000000000000010202030303031C
:102BA80004040404040404040505050505050505D5
:102BB80005050505050505050606060606060606B5
:102BC800060606060606060606060606060606069D
:102BD8000606060606060606070707070707070785
:102BE800070707070707070707070707070707076D
:102BF800070707070707070707070707070707075D
:102C0800070707070707070707070707070707074C
:102C18000707070707070707080808080808080834
:102C2800080808080808080808080808080808081C
:102C3800080808080808080808080808080808080C
:102C480008080808080808080808080808080808FC
:102C580008080808080808080808080808080808EC
:102C680008080808080808080808080808080808DC
:102C780008080808080808080808080808080808CC
:102C880008080808080808080808080808080808BC
:102C980008080808080808080101010100000101E6
:102CA800010101010101010101010101010101010C
:102CB80001010101010101010101010101010101FC
:102CC80001010101010101010101010101010101EC
:082CD8000101010101010101EC
:00000001FF
