:100000000C942A000C943F000C943F000C943F0089
:100010000C943F000C943F000C943F000C943F0064
:100020000C943F000C943F000C943F000C943F0054
:100030000C943F000C943F000C943F000C943F0044
:100040000C943F000C943F000C943F000C943F0034
:100050000C943F0011241FBECFE5D8E0DEBFCDBF1A
:1000600011E0A0E6B0E0E8EDF5E102C005900D92E8
:10007000A83AB107D9F70E94460A0C94EA0A0C94F0
:100080000000EF92FF920F931F937B018C0120E001
:1000900030E040E05FE40E94110388238CF0C80147
:1000A000B70120E030E040E05FE40E94B9010E9427
:1000B00041039B01AC01205030404040504806C0F5
:1000C000C801B7010E9441039B01AC01B901CA01FB
:1000D0001F910F91FF90EF900895A0E0B0E0E3E74B
:1000E000F0E00C94B30ADC012B01FA019C919230F0
:1000F00008F439C1EB018881823008F433C19430AF
:1001000069F4843009F02FC111969C91119789816F
:10011000981709F428C1A0E6B0E025C1843009F49D
:1001200021C18230A9F4923009F01DC19A01AD01BC
:1001300088E0EA010990AE01E90109929E0181502F
:10014000C1F7E201898111969C918923818308C1BD
:10015000923009F407C112962D903C901397EB0151
:100160008A819B811496AD90BD90CD90DC901797BD
:10017000EC80FD800E811F819101281B390BB90194
:1001800037FF04C066277727621B730B6032710547
:100190000CF061C0121613066CF537014801062EEB
:1001A00004C096948794779467940A94D2F721E0D8
:1001B00030E040E050E004C0220F331F441F551FC1
:1001C0006A95D2F721503040404050402E213F21C7
:1001D00040235123211531054105510521F021E02E
:1001E00030E040E050E079018A01E628F72808294C
:1001F00019293CC0232BD1F1260E371E35014601AB
:10020000062E04C096948794779467940A94D2F744
:1002100021E030E040E050E004C0220F331F441FD3
:10022000551F6A95D2F721503040404050402A2156
:100230003B214C215D21211531054105510521F05E
:1002400021E030E040E050E059016A01A628B728DB
:10025000C828D9280BC0821593052CF01C01AA24AC
:10026000BB24650103C0EE24FF24870111969C91F5
:10027000D20111968C91981709F445C0992339F051
:10028000A80197012A193B094C095D0906C0A6017E
:1002900095012E193F09400B510B57FD08C01182E3
:1002A0003382228224833583468357831DC081E0B5
:1002B00081833382228288279927DC01821B930B5A
:1002C000A40BB50B84839583A683B7830DC0220F3F
:1002D000331F441F551F24833583468357838281F0
:1002E000938101979383828324813581468157814D
:1002F000DA01C9010197A109B1098F5F9F4FAF4F83
:10030000BF4328F30BC0918333822282EA0CFB1C8B
:100310000C1D1D1DE482F5820683178383E0808314
:10032000248135814681578157FF1AC0C901AA2708
:1003300097FDA095BA2F81709070A070B0705695FF
:10034000479537952795822B932BA42BB52B848328
:100350009583A683B7838281938101969383828359
:10036000DF0101C0D201CD01CDB7DEB7E2E10C94CF
:10037000CF0AA0E2B0E0EFEBF1E00C94BF0A698392
:100380007A838B839C832D833E834F835887E9E058
:10039000EE2EF12CEC0EFD1ECE010196B7010E944F
:1003A00032058E010F5E1F4FCE010596B8010E94E7
:1003B00032058A8991E089278A8BC701B801AE018D
:1003C000475E5F4F0E946D000E945D04A096E6E0CC
:1003D0000C94DB0AA0E2B0E0E0EFF1E00C94BF0A7D
:1003E00069837A838B839C832D833E834F835887D5
:1003F000F9E0EF2EF12CEC0EFD1ECE010196B701B7
:100400000E9432058E010F5E1F4FCE010596B80186
:100410000E943205C701B801AE01475E5F4F0E94DE
:100420006D000E945D04A096E6E00C94DB0AA0E259
:10043000B0E0EDE1F2E00C94B30A69837A838B8338
:100440009C832D833E834F835887CE010196BE0146
:10045000675F7F4F0E943205CE010596BE016F5E39
:100460007F4F0E9432059985923088F089898230C9
:10047000C8F0943019F4823051F404C0843029F467
:10048000923081F480E690E0C6C0923049F420E0DA
:100490009A858A89981321E02A87CE010996BBC0E4
:1004A000823049F420E09A858A89981321E02A8BCA
:1004B000CE014196B0C02D843E844F8458886D880B
:1004C0007E888F88988CEE24FF248701AA24BB2481
:1004D000650140E050E060E070E0E0E0F0E0C10184
:1004E00081709070892BE9F0E60CF71C081D191D2E
:1004F0009A01AB012A0D3B1D4C1D5D1D80E090E073
:10050000A0E0B0E0E614F7040805190520F481E046
:1005100090E0A0E0B0E0BA01A901480F591F6A1F9E
:100520007B1FAA0CBB1CCC1CDD1C97FE08C081E005
:1005300090E0A0E0B0E0A82AB92ACA2ADB2A3196C6
:10054000E032F10549F0660C771C881C991C569422
:10055000479437942794C3CFFA85EA892B893C893D
:100560008B859C85280F391F2E5F3F4F17C0CA010E
:1005700081709070892B61F016950795F794E79438
:1005800080E090E0A0E0B0E8E82AF92A0A2B1B2BD3
:1005900076956795579547952F5F3F4F77FDE7CF46
:1005A0000CC0440F551F661F771F17FD4160EE0CEE
:1005B000FF1C001F111F21503040403090E05907B0
:1005C00090E0690790E4790760F32B8F3C8FDB01A3
:1005D000CA018F779070A070B07080349105A1052A
:1005E000B10561F447FD0AC0E114F10401051105EC
:1005F00029F0405C5F4F6F4F7F4F40781A8EFE1797
:1006000011F081E08A8F4D8F5E8F6F8F78A383E02A
:10061000898FCE0149960E945D04A096E2E10C9478
:10062000CF0AA8E1B0E0E7E1F3E00C94BF0A6983E8
:100630007A838B839C832D833E834F83588789E005
:10064000E82EF12CEC0EFD1ECE010196B7010E94A2
:1006500032058E010F5E1F4FCE010596B8010E9434
:1006600032058985823040F08989823028F0C701BF
:10067000B8010E94AA0501C08FEF6896E6E00C94CD
:10068000DB0AACE0B0E0E7E4F3E00C94C30A698372
:100690007A838B839C83CE010196BE016B5F7F4F73
:1006A0000E9432058D81823061F1823050F18430B8
:1006B00021F48E81882351F12EC02F81388537FD9A
:1006C00020C06E812F3131051CF06623F9F023C064
:1006D0008EE190E0821B930B29853A854B855C85E2
:1006E00004C056954795379527958A95D2F7662386
:1006F000B1F050954095309521953F4F4F4F5F4F4A
:100700000EC020E030E040E050E009C02FEF3FEFA6
:100710004FEF5FE704C020E030E040E050E8B9016F
:10072000CA012C96E2E00C94DF0AA8E0B0E0EBE905
:10073000F3E00C94BB0A7B018C0161157105810506
:10074000910519F482E0898360C083E089838EE19A
:10075000C82ED12CDC82CB82ED82FE820F831887DB
:10076000C801B7010E940E04FC013197F7FF3BC09E
:10077000222733272E1B3F0B57016801022E04C08E
:10078000D694C794B794A7940A94D2F740E050E067
:1007900060E070E081E090E0A0E0B0E004C0880F8D
:1007A000991FAA1FBB1F2A95D2F70197A109B1096A
:1007B0008E219F21A023B1230097A105B10521F02F
:1007C00041E050E060E070E04A295B296C297D2916
:1007D0004D835E836F8378878EE190E08E1B9F0B45
:1007E0009C838B8312C0309781F00E2E04C0EE0CD8
:1007F000FF1C001F111F0A94D2F7ED82FE820F83A7
:100800001887CE1ADF0ADC82CB821A82CE010196CB
:100810000E945D042896EAE00C94D70AEF92FF92BA
:100820000F931F937B018C0180E0E81680E0F806AF
:1008300081E0080780E0180788F48FEFE816F104DC
:100840000105110531F028F088E090E0A0E0B0E06B
:1008500017C080E090E0A0E0B0E012C080E0E816B1
:1008600080E0F80680E0080781E0180728F088E1BA
:1008700090E0A0E0B0E004C080E190E0A0E0B0E053
:1008800020E230E040E050E0281B390B4A0B5B0BC4
:1008900004C016950795F794E7948A95D2F7F70167
:1008A000E859FF4F8081281B310941095109C901CD
:1008B0001F910F91FF90EF900895DF92EF92FF92BA
:1008C0000F931F93FC01E480F58006811781D1808E
:1008D0008081823048F480E090E0A0E1B0E0E82A36
:1008E000F92A0A2B1B2BA5C0843009F49FC0823043
:1008F00021F4EE24FF24870105C0E114F104010571
:10090000110519F4E0E0F0E096C0628173819FEF79
:10091000623879070CF05BC022E83FEF261B370BEB
:100920002A3131052CF020E030E040E050E02AC0D0
:10093000B801A701022E04C0769567955795479593
:100940000A94D2F781E090E0A0E0B0E004C0880F04
:10095000991FAA1FBB1F2A95D2F70197A109B109B8
:100960008E219F21A023B1230097A105B10521F07D
:1009700081E090E0A0E0B0E09A01AB01282B392B98
:100980004A2B5B2BDA01C9018F779070A070B07091
:1009900080349105A105B10539F427FF09C0205C19
:1009A0003F4F4F4F5F4F04C0215C3F4F4F4F5F4F52
:1009B000E0E0F0E02030A0E03A07A0E04A07A0E441
:1009C0005A0710F0E1E0F0E079018A0127C06038B1
:1009D000710564F5FB01E158FF4FD801C7018F771E
:1009E0009070A070B07080349105A105B10539F404
:1009F000E7FE0DC080E490E0A0E0B0E004C08FE32B
:100A000090E0A0E0B0E0E80EF91E0A1F1B1F17FFE0
:100A100005C016950795F794E794319687E01695EB
:100A20000795F794E7948A95D1F705C0EE24FF2443
:100A30008701EFEFF0E06E2F679566276795902F9F
:100A40009F77D794DD24D7948E2F8695492F462BF8
:100A5000582F5D29B701CA011F910F91FF90EF90A8
:100A6000DF900895FC01DB01408151812281622FDA
:100A70006F7770E0221F2227221F9381892F880F12
:100A8000822B282F30E0991F9927991F11969C934C
:100A9000119721153105A9F541155105610571051C
:100AA00011F482E037C082E89FEF13969C938E93F7
:100AB00012979A01AB0167E0220F331F441F551FA5
:100AC0006A95D1F783E08C930DC0220F331F441F2A
:100AD000551F12968D919C911397019713969C9395
:100AE0008E931297203080E0380780E0480780E43A
:100AF000580758F314962D933D934D935C93179795
:100B000008952F3F310579F44115510561057105AF
:100B100019F484E08C93089564FF03C081E08C9302
:100B200012C01C9210C02F57304013963C932E9346
:100B3000129783E08C9387E0440F551F661F771F41
:100B40008A95D1F7706414964D935D936D937C9361
:100B5000179708951F93DC01FB019C91923008F4D4
:100B600047C08081823008F443C0943051F411961C
:100B70001C91843099F58181682F70E0611B7109A7
:100B80003FC0843021F0923031F48230B9F181815C
:100B9000882389F12DC011961C9111978230F1F0B4
:100BA00081811817D9F412962D913C911397828167
:100BB00093818217930794F028173907BCF0149695
:100BC0008D919D910D90BC91A02D24813581468100
:100BD0005781281739074A075B0718F4112341F09A
:100BE0000AC082179307A407B50740F4112319F030
:100BF00061E070E005C06FEF7FEF02C060E070E081
:100C0000CB011F910895DF93CF9300D000D00F92B6
:100C1000CDB7DEB71A8219821B82C8C18B81869537
:100C2000869586958A838B81877089838A81282F10
:100C300030E03D832C838C819D818130910509F4C6
:100C40007EC02C813D81223031052CF48C819D8128
:100C5000009771F0A8C12C813D812230310509F443
:100C6000D5C08C819D818330910509F436C19BC12B
:100C70008B81882F90E0880F991FFC01E859FE4F67
:100C800080818130A1F4AAE3B0E0EAE3F0E0808162
:100C9000482F8981282F30E081E090E0022E02C0A9
:100CA000880F991F0A94E2F7842B8C937CC1AAE3E6
:100CB000B0E0EAE3F0E08081482F8981282F30E01E
:100CC00081E090E0022E02C0880F991F0A94E2F79B
:100CD000809584238C938B81882F90E0880F991FB7
:100CE000FC01E759FE4F80818823A1F4ABE3B0E01B
:100CF000EBE3F0E08081482F8981282F30E081E00C
:100D000090E0022E02C0880F991F0A94E2F7842B0C
:100D10008C9349C1ABE3B0E0EBE3F0E08081482F76
:100D20008981282F30E081E090E0022E02C0880FF8
:100D3000991F0A94E2F7809584238C9334C18B81A8
:100D4000882F90E0880F991FFC01E859FE4F8081A1
:100D50008130A1F4A7E3B0E0E7E3F0E08081482F21
:100D60008981282F30E081E090E0022E02C0880FB8
:100D7000991F0A94E2F7842B8C9315C1A7E3B0E086
:100D8000E7E3F0E08081482F8981282F30E081E07F
:100D900090E0022E02C0880F991F0A94E2F7809516
:100DA00084238C938B81882F90E0880F991FFC01FE
:100DB000E759FE4F80818823A1F4A8E3B0E0E8E37F
:100DC000F0E08081482F8981282F30E081E090E099
:100DD000022E02C0880F991F0A94E2F7842B8C938D
:100DE000E2C0A8E3B0E0E8E3F0E08081482F898129
:100DF000282F30E081E090E0022E02C0880F991F7A
:100E00000A94E2F7809584238C93CDC08B81882F40
:100E100090E0880F991FFC01E859FE4F80818130D6
:100E2000A1F4A4E3B0E0E4E3F0E08081482F8981FD
:100E3000282F30E081E090E0022E02C0880F991F39
:100E40000A94E2F7842B8C93AEC0A4E3B0E0E4E311
:100E5000F0E08081482F8981282F30E081E090E008
:100E6000022E02C0880F991F0A94E2F7809584230E
:100E70008C938B81882F90E0880F991FFC01E75994
:100E8000FE4F80818823A1F4A5E3B0E0E5E3F0E024
:100E90008081482F8981282F30E081E090E0022E68
:100EA00002C0880F991F0A94E2F7842B8C937BC0B1
:100EB000A5E3B0E0E5E3F0E08081482F8981282FA9
:100EC00030E081E090E0022E02C0880F991F0A9462
:100ED000E2F7809584238C9366C08B81882F90E005
:100EE000880F991FFC01E859FE4F80818130A1F4E1
:100EF000A1E3B0E0E1E3F0E08081482F8981282F71
:100F000030E081E090E0022E02C0880F991F0A9421
:100F1000E2F7842B8C9347C0A1E3B0E0E1E3F0E07B
:100F20008081482F8981282F30E081E090E0022ED7
:100F300002C0880F991F0A94E2F7809584238C934E
:100F40008B81882F90E0880F991FFC01E759FE4F95
:100F500080818823A1F4A2E3B0E0E2E3F0E08081A5
:100F6000482F8981282F30E081E090E0022E02C0D6
:100F7000880F991F0A94E2F7842B8C9314C0A2E384
:100F8000B0E0E2E3F0E08081482F8981282F30E053
:100F900081E090E0022E02C0880F991F0A94E2F7C8
:100FA000809584238C938B818F5F8B838B818032A0
:100FB00008F434CE80E00F900F900F900F900F90B8
:100FC000CF91DF910895DF93CF9300D000D000D070
:100FD000CDB7DEB78B838B81803218F021E02E8372
:100FE00077C08B818695869586958A838B8187705D
:100FF00089838A81282F30E03D832C838C819D81D9
:101000008130910549F12C813D81223031052CF44C
:101010008C819D81009761F05AC02C813D812230E6
:10102000310571F18C819D8183309105E9F14FC0CB
:10103000ABE3B0E0EBE3F0E08081482F8981282F1B
:1010400030E081E090E0022E02C0880F991F0A94E0
:10105000E2F7842B8C933BC0A8E3B0E0E8E3F0E038
:101060008081482F8981282F30E081E090E0022E96
:1010700002C0880F991F0A94E2F7842B8C9327C033
:10108000A5E3B0E0E5E3F0E08081482F8981282FD7
:1010900030E081E090E0022E02C0880F991F0A9490
:1010A000E2F7842B8C9313C0A2E3B0E0E2E3F0E01C
:1010B0008081482F8981282F30E081E090E0022E46
:1010C00002C0880F991F0A94E2F7842B8C931E822A
:1010D0008E8126960FB6F894DEBF0FBECDBFCF919E
:1010E000DF910895DF93CF9300D000D000D0CDB72B
:1010F000DEB78B838B81803218F021E02E837CC099
:101100008B818695869586958A838B818770898366
:101110008A81282F30E03D832C838C819D81813012
:10112000910559F12C813D81223031052CF48C81BF
:101130009D81009769F05FC02C813D81223031058F
:1011400089F18C819D818330910509F440C053C0A1
:10115000ABE3B0E0EBE3F0E08081482F8981282FFA
:1011600030E081E090E0022E02C0880F991F0A94BF
:10117000E2F7809584238C933EC0A8E3B0E0E8E3D7
:10118000F0E08081482F8981282F30E081E090E0D5
:10119000022E02C0880F991F0A94E2F780958423DB
:1011A0008C9329C0A5E3B0E0E5E3F0E08081482F0F
:1011B0008981282F30E081E090E0022E02C0880F64
:1011C000991F0A94E2F7809584238C9314C0A2E3BC
:1011D000B0E0E2E3F0E08081482F8981282F30E001
:1011E00081E090E0022E02C0880F991F0A94E2F776
:1011F000809584238C931E828E8126960FB6F89458
:10120000DEBF0FBECDBFCF91DF910895DF93CF93A7
:10121000CDB7DEB728970FB6F894DEBF0FBECDBFAF
:101220008B837D836C838B81803218F021E028874B
:1012300079C08B818695869586958A838B81877008
:1012400089838A81482F50E05F834E838E819F81FE
:101250008130910559F12E813F812230310534F4DE
:101260004E815F814115510569F05BC08E819F8180
:101270008230910579F12E813F812330310509F4C7
:101280003DC04FC0E9E3F0E08081282F30E0898144
:10129000882F90E0A90102C0559547958A95E2F7FD
:1012A000CA018170EC81FD8180833BC0E6E3F0E000
:1012B0008081282F30E08981882F90E0A90102C029
:1012C000559547958A95E2F7CA018170EC81FD81B9
:1012D000808327C0E3E3F0E08081282F30E089811C
:1012E000882F90E0A90102C0559547958A95E2F7AD
:1012F000CA018170EC81FD81808313C0E0E3F0E0DE
:101300008081282F30E08981882F90E0A90102C0D8
:10131000559547958A95E2F7CA018170EC81FD8168
:1013200080831886888528960FB6F894DEBF0FBE96
:10133000CDBFCF91DF910895DF93CF9300D000D040
:10134000CDB7DEB769837A838B839C8369817A8189
:101350008B819C810E949503DC01CB01BC01CD01F6
:1013600020E030E040E051E40E941702DC01CB01B4
:10137000BC01CD012EEA37E44BEE51E40E94170286
:10138000DC01CB01BC01CD010E944100DC01CB019D
:1013900089839A83AB83BC830CC0000089819A81C6
:1013A000AB81BC810197A109B10989839A83AB8381
:1013B000BC8389819A81AB81BC810097A105B1056D
:1013C00061F70F900F900F900F90CF91DF910895DC
:1013D000DF93CF9300D00F92CDB7DEB79A83898386
:1013E0008A81813218F081E08B830BC08981813042
:1013F00021F48A810E94E30703C08A810E94720857
:101400001B828B810F900F900F90CF91DF910895E9
:10141000DF93CF9300D00F92CDB7DEB79A83898345
:101420008A81813218F081E08B830BC08981813001
:1014300021F48A810E94720803C08A810E94E30716
:101440001B828B810F900F900F90CF91DF910895A9
:10145000DF93CF9300D000D0CDB7DEB789837B83F5
:101460006A838981803218F081E08C8307C02A81E9
:101470003B818981B9010E9406091C828C810F90F1
:101480000F900F900F90CF91DF910895DF93CF933E
:10149000CDB7DEB768970FB6F894DEBF0FBECDBFED
:1014A0000E94030681E08D831E8281E08F8318866F
:1014B00081E089871A8681E08B8781E08C8781E0D3
:1014C0008D8782E08E8781E08F8783E0888B81E043
:1014D000898B84E08A8B81E08B8B85E08C8B81E02B
:1014E0008D8B86E08E8B81E08F8B87E0888F80E10B
:1014F0008A8381E189839E012D5F3F4F8A81B901F3
:101500000E94280A9E012C5F3F4F8981B9010E94E9
:10151000280A8B81882399F48E81893080F488850C
:101520008F5F88878E818F5F8E838D819E810E94E1
:10153000E80964EF71E080E090E00E949C098C81F2
:101540008823C9F68885815088878E8181508E8353
:101550008D819E810E94080A64EF71E080E090E036
:101560000E949C09C8CF2F923F924F925F926F9238
:101570007F928F929F92AF92BF92CF92DF92EF9223
:10158000FF920F931F93CF93DF93CDB7DEB7CA1BA4
:10159000DB0B0FB6F894DEBF0FBECDBF09942A88CF
:1015A000398848885F846E847D848C849B84AA8477
:1015B000B984C884DF80EE80FD800C811B81AA8104
:1015C000B981CE0FD11D0FB6F894DEBF0FBECDBFCF
:0815D000ED010895F894FFCF2E
:1015D80000000000000000000001020203030303F2
:1015E80004040404040404040505050505050505AB
:1015F800050505050505050506060606060606068B
:101608000606060606060606060606060606060672
:10161800060606060606060607070707070707075A
:101628000707070707070707070707070707070742
:101638000707070707070707070707070707070732
:101648000707070707070707070707070707070722
:10165800070707070707070708080808080808080A
:1016680008080808080808080808080808080808F2
:1016780008080808080808080808080808080808E2
:1016880008080808080808080808080808080808D2
:1016980008080808080808080808080808080808C2
:1016A80008080808080808080808080808080808B2
:1016B80008080808080808080808080808080808A2
:1016C8000808080808080808080808080808080892
:1016D80008080808080808080100010001000100BE
:1016E80001000100010001000101010101010101E6
:1016F80001010101010101010000000001010101D6
:1017080001010101010101010101010101010101C1
:081718000101010101010101C1
:00000001FF
